{
  "_format": "hh-sol-artifact-1",
  "contractName": "NFTMarket",
  "sourceName": "contracts/NFTMarket.sol",
  "abi": [
    {
      "inputs": [],
      "stateMutability": "nonpayable",
      "type": "constructor"
    },
    {
      "anonymous": false,
      "inputs": [
        {
          "indexed": true,
          "internalType": "uint256",
          "name": "itemId",
          "type": "uint256"
        },
        {
          "indexed": true,
          "internalType": "address",
          "name": "nftContract",
          "type": "address"
        },
        {
          "indexed": true,
          "internalType": "uint256",
          "name": "tokenId",
          "type": "uint256"
        },
        {
          "indexed": false,
          "internalType": "address",
          "name": "seller",
          "type": "address"
        },
        {
          "indexed": false,
          "internalType": "address",
          "name": "owner",
          "type": "address"
        },
        {
          "indexed": false,
          "internalType": "uint256",
          "name": "price",
          "type": "uint256"
        },
        {
          "indexed": false,
          "internalType": "bool",
          "name": "sold",
          "type": "bool"
        }
      ],
      "name": "MarketItemCreated",
      "type": "event"
    },
    {
      "inputs": [
        {
          "internalType": "address",
          "name": "nftContract",
          "type": "address"
        },
        {
          "internalType": "uint256",
          "name": "tokenId",
          "type": "uint256"
        },
        {
          "internalType": "uint256",
          "name": "price",
          "type": "uint256"
        }
      ],
      "name": "createMarketItem",
      "outputs": [],
      "stateMutability": "payable",
      "type": "function"
    },
    {
      "inputs": [
        {
          "internalType": "address",
          "name": "nftContract",
          "type": "address"
        },
        {
          "internalType": "uint256",
          "name": "itemId",
          "type": "uint256"
        }
      ],
      "name": "createMarketSale",
      "outputs": [],
      "stateMutability": "payable",
      "type": "function"
    },
    {
      "inputs": [],
      "name": "fetchItemsCreated",
      "outputs": [
        {
          "components": [
            {
              "internalType": "uint256",
              "name": "itemId",
              "type": "uint256"
            },
            {
              "internalType": "address",
              "name": "nftContract",
              "type": "address"
            },
            {
              "internalType": "uint256",
              "name": "tokenId",
              "type": "uint256"
            },
            {
              "internalType": "address payable",
              "name": "seller",
              "type": "address"
            },
            {
              "internalType": "address payable",
              "name": "owner",
              "type": "address"
            },
            {
              "internalType": "uint256",
              "name": "price",
              "type": "uint256"
            },
            {
              "internalType": "bool",
              "name": "sold",
              "type": "bool"
            }
          ],
          "internalType": "struct NFTMarket.MarketItem[]",
          "name": "",
          "type": "tuple[]"
        }
      ],
      "stateMutability": "view",
      "type": "function"
    },
    {
      "inputs": [],
      "name": "fetchMarketItems",
      "outputs": [
        {
          "components": [
            {
              "internalType": "uint256",
              "name": "itemId",
              "type": "uint256"
            },
            {
              "internalType": "address",
              "name": "nftContract",
              "type": "address"
            },
            {
              "internalType": "uint256",
              "name": "tokenId",
              "type": "uint256"
            },
            {
              "internalType": "address payable",
              "name": "seller",
              "type": "address"
            },
            {
              "internalType": "address payable",
              "name": "owner",
              "type": "address"
            },
            {
              "internalType": "uint256",
              "name": "price",
              "type": "uint256"
            },
            {
              "internalType": "bool",
              "name": "sold",
              "type": "bool"
            }
          ],
          "internalType": "struct NFTMarket.MarketItem[]",
          "name": "",
          "type": "tuple[]"
        }
      ],
      "stateMutability": "view",
      "type": "function"
    },
    {
      "inputs": [],
      "name": "fetchMyNFTs",
      "outputs": [
        {
          "components": [
            {
              "internalType": "uint256",
              "name": "itemId",
              "type": "uint256"
            },
            {
              "internalType": "address",
              "name": "nftContract",
              "type": "address"
            },
            {
              "internalType": "uint256",
              "name": "tokenId",
              "type": "uint256"
            },
            {
              "internalType": "address payable",
              "name": "seller",
              "type": "address"
            },
            {
              "internalType": "address payable",
              "name": "owner",
              "type": "address"
            },
            {
              "internalType": "uint256",
              "name": "price",
              "type": "uint256"
            },
            {
              "internalType": "bool",
              "name": "sold",
              "type": "bool"
            }
          ],
          "internalType": "struct NFTMarket.MarketItem[]",
          "name": "",
          "type": "tuple[]"
        }
      ],
      "stateMutability": "view",
      "type": "function"
    },
    {
      "inputs": [],
      "name": "getListingPrice",
      "outputs": [
        {
          "internalType": "uint256",
          "name": "",
          "type": "uint256"
        }
      ],
      "stateMutability": "view",
      "type": "function"
    },
    {
      "inputs": [
        {
          "internalType": "uint256",
          "name": "_price",
          "type": "uint256"
        }
      ],
      "name": "setListingPrice",
      "outputs": [
        {
          "internalType": "uint256",
          "name": "",
          "type": "uint256"
        }
      ],
      "stateMutability": "nonpayable",
      "type": "function"
    }
  ],
  "bytecode": "0x60806040526658d15e1762800060045534801561001b57600080fd5b50600160008190555033600360006101000a81548173ffffffffffffffffffffffffffffffffffffffff021916908373ffffffffffffffffffffffffffffffffffffffff16021790555061196f806100746000396000f3fe6080604052600436106100705760003560e01c806358eb2df51161004e57806358eb2df5146100f65780637c726b6914610112578063c23b139e1461014f578063f064c32e1461016b57610070565b80630f08efe01461007557806312e85585146100a0578063202e3740146100cb575b600080fd5b34801561008157600080fd5b5061008a610196565b60405161009791906113ec565b60405180910390f35b3480156100ac57600080fd5b506100b5610475565b6040516100c2919061141d565b60405180910390f35b3480156100d757600080fd5b506100e061047f565b6040516100ed91906113ec565b60405180910390f35b610110600480360381019061010b9190611495565b6107e1565b005b34801561011e57600080fd5b50610139600480360381019061013491906114e8565b610aff565b604051610146919061141d565b60405180910390f35b61016960048036038101906101649190611515565b610b46565b005b34801561017757600080fd5b50610180610db9565b60405161018d91906113ec565b60405180910390f35b606060006101a4600161111b565b905060006101b2600261111b565b6101bc600161111b565b6101c69190611584565b90506000808267ffffffffffffffff8111156101e5576101e46115b8565b5b60405190808252806020026020018201604052801561021e57816020015b61020b611198565b8152602001906001900390816102035790505b50905060005b8481101561046a57600073ffffffffffffffffffffffffffffffffffffffff166005600060018461025591906115e7565b815260200190815260200160002060040160009054906101000a900473ffffffffffffffffffffffffffffffffffffffff1673ffffffffffffffffffffffffffffffffffffffff1603610457576000600560006001846102b591906115e7565b81526020019081526020016000206000015490506000600560008381526020019081526020016000209050806040518060e0016040529081600082015481526020016001820160009054906101000a900473ffffffffffffffffffffffffffffffffffffffff1673ffffffffffffffffffffffffffffffffffffffff1673ffffffffffffffffffffffffffffffffffffffff168152602001600282015481526020016003820160009054906101000a900473ffffffffffffffffffffffffffffffffffffffff1673ffffffffffffffffffffffffffffffffffffffff1673ffffffffffffffffffffffffffffffffffffffff1681526020016004820160009054906101000a900473ffffffffffffffffffffffffffffffffffffffff1673ffffffffffffffffffffffffffffffffffffffff1673ffffffffffffffffffffffffffffffffffffffff168152602001600582015481526020016006820160009054906101000a900460ff16151515158152505084868151811061043a5761043961161b565b5b602002602001018190525060018561045291906115e7565b945050505b80806104629061164a565b915050610224565b508094505050505090565b6000600454905090565b6060600061048d600161111b565b905060008060005b83811015610535573373ffffffffffffffffffffffffffffffffffffffff16600560006001846104c591906115e7565b815260200190815260200160002060040160009054906101000a900473ffffffffffffffffffffffffffffffffffffffff1673ffffffffffffffffffffffffffffffffffffffff16036105225760018361051f91906115e7565b92505b808061052d9061164a565b915050610495565b5060008267ffffffffffffffff811115610552576105516115b8565b5b60405190808252806020026020018201604052801561058b57816020015b610578611198565b8152602001906001900390816105705790505b50905060005b848110156107d6573373ffffffffffffffffffffffffffffffffffffffff16600560006001846105c191906115e7565b815260200190815260200160002060040160009054906101000a900473ffffffffffffffffffffffffffffffffffffffff1673ffffffffffffffffffffffffffffffffffffffff16036107c35760006005600060018461062191906115e7565b81526020019081526020016000206000015490506000600560008381526020019081526020016000209050806040518060e0016040529081600082015481526020016001820160009054906101000a900473ffffffffffffffffffffffffffffffffffffffff1673ffffffffffffffffffffffffffffffffffffffff1673ffffffffffffffffffffffffffffffffffffffff168152602001600282015481526020016003820160009054906101000a900473ffffffffffffffffffffffffffffffffffffffff1673ffffffffffffffffffffffffffffffffffffffff1673ffffffffffffffffffffffffffffffffffffffff1681526020016004820160009054906101000a900473ffffffffffffffffffffffffffffffffffffffff1673ffffffffffffffffffffffffffffffffffffffff1673ffffffffffffffffffffffffffffffffffffffff168152602001600582015481526020016006820160009054906101000a900460ff1615151515815250508486815181106107a6576107a561161b565b5b60200260200101819052506001856107be91906115e7565b945050505b80806107ce9061164a565b915050610591565b508094505050505090565b6107e9611129565b6000811161082c576040517f08c379a0000000000000000000000000000000000000000000000000000000008152600401610823906116ef565b60405180910390fd5b6004543414610870576040517f08c379a000000000000000000000000000000000000000000000000000000000815260040161086790611781565b60405180910390fd5b61087a6001611178565b6000610886600161111b565b90506040518060e001604052808281526020018573ffffffffffffffffffffffffffffffffffffffff1681526020018481526020013373ffffffffffffffffffffffffffffffffffffffff168152602001600073ffffffffffffffffffffffffffffffffffffffff16815260200183815260200160001515815250600560008381526020019081526020016000206000820151816000015560208201518160010160006101000a81548173ffffffffffffffffffffffffffffffffffffffff021916908373ffffffffffffffffffffffffffffffffffffffff1602179055506040820151816002015560608201518160030160006101000a81548173ffffffffffffffffffffffffffffffffffffffff021916908373ffffffffffffffffffffffffffffffffffffffff16021790555060808201518160040160006101000a81548173ffffffffffffffffffffffffffffffffffffffff021916908373ffffffffffffffffffffffffffffffffffffffff16021790555060a0820151816005015560c08201518160060160006101000a81548160ff0219169083151502179055509050508373ffffffffffffffffffffffffffffffffffffffff166323b872dd3330866040518463ffffffff1660e01b8152600401610a67939291906117b0565b600060405180830381600087803b158015610a8157600080fd5b505af1158015610a95573d6000803e3d6000fd5b50505050828473ffffffffffffffffffffffffffffffffffffffff16827f045dfa01dcba2b36aba1d3dc4a874f4b0c5d2fbeb8d2c4b34a7d88c8d8f929d1336000876000604051610ae994939291906117f6565b60405180910390a450610afa61118e565b505050565b60003073ffffffffffffffffffffffffffffffffffffffff163373ffffffffffffffffffffffffffffffffffffffff1603610b3c57816004819055505b6004549050919050565b610b4e611129565b600060056000838152602001908152602001600020600501549050600060056000848152602001908152602001600020600201549050813414610bc6576040517f08c379a0000000000000000000000000000000000000000000000000000000008152600401610bbd906118ad565b60405180910390fd5b6005600084815260200190815260200160002060030160009054906101000a900473ffffffffffffffffffffffffffffffffffffffff1673ffffffffffffffffffffffffffffffffffffffff166108fc349081150290604051600060405180830381858888f19350505050158015610c42573d6000803e3d6000fd5b508373ffffffffffffffffffffffffffffffffffffffff166323b872dd3033846040518463ffffffff1660e01b8152600401610c80939291906117b0565b600060405180830381600087803b158015610c9a57600080fd5b505af1158015610cae573d6000803e3d6000fd5b50505050336005600085815260200190815260200160002060040160006101000a81548173ffffffffffffffffffffffffffffffffffffffff021916908373ffffffffffffffffffffffffffffffffffffffff16021790555060016005600085815260200190815260200160002060060160006101000a81548160ff021916908315150217905550610d406002611178565b600360009054906101000a900473ffffffffffffffffffffffffffffffffffffffff1673ffffffffffffffffffffffffffffffffffffffff166108fc6004549081150290604051600060405180830381858888f19350505050158015610daa573d6000803e3d6000fd5b505050610db561118e565b5050565b60606000610dc7600161111b565b905060008060005b83811015610e6f573373ffffffffffffffffffffffffffffffffffffffff1660056000600184610dff91906115e7565b815260200190815260200160002060030160009054906101000a900473ffffffffffffffffffffffffffffffffffffffff1673ffffffffffffffffffffffffffffffffffffffff1603610e5c57600183610e5991906115e7565b92505b8080610e679061164a565b915050610dcf565b5060008267ffffffffffffffff811115610e8c57610e8b6115b8565b5b604051908082528060200260200182016040528015610ec557816020015b610eb2611198565b815260200190600190039081610eaa5790505b50905060005b84811015611110573373ffffffffffffffffffffffffffffffffffffffff1660056000600184610efb91906115e7565b815260200190815260200160002060030160009054906101000a900473ffffffffffffffffffffffffffffffffffffffff1673ffffffffffffffffffffffffffffffffffffffff16036110fd57600060056000600184610f5b91906115e7565b81526020019081526020016000206000015490506000600560008381526020019081526020016000209050806040518060e0016040529081600082015481526020016001820160009054906101000a900473ffffffffffffffffffffffffffffffffffffffff1673ffffffffffffffffffffffffffffffffffffffff1673ffffffffffffffffffffffffffffffffffffffff168152602001600282015481526020016003820160009054906101000a900473ffffffffffffffffffffffffffffffffffffffff1673ffffffffffffffffffffffffffffffffffffffff1673ffffffffffffffffffffffffffffffffffffffff1681526020016004820160009054906101000a900473ffffffffffffffffffffffffffffffffffffffff1673ffffffffffffffffffffffffffffffffffffffff1673ffffffffffffffffffffffffffffffffffffffff168152602001600582015481526020016006820160009054906101000a900460ff1615151515815250508486815181106110e0576110df61161b565b5b60200260200101819052506001856110f891906115e7565b945050505b80806111089061164a565b915050610ecb565b508094505050505090565b600081600001549050919050565b60026000540361116e576040517f08c379a000000000000000000000000000000000000000000000000000000000815260040161116590611919565b60405180910390fd5b6002600081905550565b6001816000016000828254019250508190555050565b6001600081905550565b6040518060e0016040528060008152602001600073ffffffffffffffffffffffffffffffffffffffff16815260200160008152602001600073ffffffffffffffffffffffffffffffffffffffff168152602001600073ffffffffffffffffffffffffffffffffffffffff168152602001600081526020016000151581525090565b600081519050919050565b600082825260208201905092915050565b6000819050602082019050919050565b6000819050919050565b61125881611245565b82525050565b600073ffffffffffffffffffffffffffffffffffffffff82169050919050565b60006112898261125e565b9050919050565b6112998161127e565b82525050565b60006112aa8261125e565b9050919050565b6112ba8161129f565b82525050565b60008115159050919050565b6112d5816112c0565b82525050565b60e0820160008201516112f1600085018261124f565b5060208201516113046020850182611290565b506040820151611317604085018261124f565b50606082015161132a60608501826112b1565b50608082015161133d60808501826112b1565b5060a082015161135060a085018261124f565b5060c082015161136360c08501826112cc565b50505050565b600061137583836112db565b60e08301905092915050565b6000602082019050919050565b600061139982611219565b6113a38185611224565b93506113ae83611235565b8060005b838110156113df5781516113c68882611369565b97506113d183611381565b9250506001810190506113b2565b5085935050505092915050565b60006020820190508181036000830152611406818461138e565b905092915050565b61141781611245565b82525050565b6000602082019050611432600083018461140e565b92915050565b600080fd5b6114468161127e565b811461145157600080fd5b50565b6000813590506114638161143d565b92915050565b61147281611245565b811461147d57600080fd5b50565b60008135905061148f81611469565b92915050565b6000806000606084860312156114ae576114ad611438565b5b60006114bc86828701611454565b93505060206114cd86828701611480565b92505060406114de86828701611480565b9150509250925092565b6000602082840312156114fe576114fd611438565b5b600061150c84828501611480565b91505092915050565b6000806040838503121561152c5761152b611438565b5b600061153a85828601611454565b925050602061154b85828601611480565b9150509250929050565b7f4e487b7100000000000000000000000000000000000000000000000000000000600052601160045260246000fd5b600061158f82611245565b915061159a83611245565b92508282039050818111156115b2576115b1611555565b5b92915050565b7f4e487b7100000000000000000000000000000000000000000000000000000000600052604160045260246000fd5b60006115f282611245565b91506115fd83611245565b925082820190508082111561161557611614611555565b5b92915050565b7f4e487b7100000000000000000000000000000000000000000000000000000000600052603260045260246000fd5b600061165582611245565b91507fffffffffffffffffffffffffffffffffffffffffffffffffffffffffffffffff820361168757611686611555565b5b600182019050919050565b600082825260208201905092915050565b7f5072696365206d7573742062652061626f7665207a65726f0000000000000000600082015250565b60006116d9601883611692565b91506116e4826116a3565b602082019050919050565b60006020820190508181036000830152611708816116cc565b9050919050565b7f5072696365206d75737420626520657175616c20746f206c697374696e67207060008201527f7269636500000000000000000000000000000000000000000000000000000000602082015250565b600061176b602483611692565b91506117768261170f565b604082019050919050565b6000602082019050818103600083015261179a8161175e565b9050919050565b6117aa8161127e565b82525050565b60006060820190506117c560008301866117a1565b6117d260208301856117a1565b6117df604083018461140e565b949350505050565b6117f0816112c0565b82525050565b600060808201905061180b60008301876117a1565b61181860208301866117a1565b611825604083018561140e565b61183260608301846117e7565b95945050505050565b7f506c65617365207375626d6974207468652061736b696e67207072696365206960008201527f6e206f7264657220746f20636f6d706c65746520707572636861736500000000602082015250565b6000611897603c83611692565b91506118a28261183b565b604082019050919050565b600060208201905081810360008301526118c68161188a565b9050919050565b7f5265656e7472616e637947756172643a207265656e7472616e742063616c6c00600082015250565b6000611903601f83611692565b915061190e826118cd565b602082019050919050565b60006020820190508181036000830152611932816118f6565b905091905056fea2646970667358221220b4a08e5a379c01a75c1415c719ae8ee657fa01a14e58f620db50b452128b808064736f6c63430008110033",
  "linkReferences": {},
  "deployedLinkReferences": {}
}